{
  "contractName": "CertificateFactory",
  "abi": [
    {
      "constant": true,
      "inputs": [
        {
          "name": "",
          "type": "uint256"
        }
      ],
      "name": "certificateArray",
      "outputs": [
        {
          "name": "",
          "type": "address"
        }
      ],
      "payable": false,
      "stateMutability": "view",
      "type": "function",
      "signature": "0xba77c4fd"
    },
    {
      "constant": true,
      "inputs": [
        {
          "name": "",
          "type": "address"
        },
        {
          "name": "",
          "type": "uint256"
        }
      ],
      "name": "certificateList",
      "outputs": [
        {
          "name": "",
          "type": "address"
        }
      ],
      "payable": false,
      "stateMutability": "view",
      "type": "function",
      "signature": "0xd97bdfa6"
    },
    {
      "anonymous": false,
      "inputs": [
        {
          "indexed": false,
          "name": "certificateAddress",
          "type": "address"
        }
      ],
      "name": "CertificateCreated",
      "type": "event",
      "signature": "0x78f27c111a2e7bb421940823aa6c5ec84b80c6dd5a84e940b6c4450d069b19e7"
    },
    {
      "constant": false,
      "inputs": [
        {
          "name": "title",
          "type": "string"
        },
        {
          "name": "id",
          "type": "uint256"
        },
        {
          "name": "userId",
          "type": "address"
        },
        {
          "name": "username",
          "type": "string"
        },
        {
          "name": "date",
          "type": "string"
        }
      ],
      "name": "createCertificate",
      "outputs": [],
      "payable": false,
      "stateMutability": "nonpayable",
      "type": "function",
      "signature": "0x28bec4c2"
    },
    {
      "constant": true,
      "inputs": [],
      "name": "getCertificates",
      "outputs": [
        {
          "name": "",
          "type": "address[]"
        }
      ],
      "payable": false,
      "stateMutability": "view",
      "type": "function",
      "signature": "0x1f5ddb4f"
    }
  ],
  "bytecode": "0x608060405234801561001057600080fd5b50611135806100206000396000f3fe608060405260043610610062576000357c0100000000000000000000000000000000000000000000000000000000900463ffffffff1680631f5ddb4f1461006757806328bec4c2146100d3578063ba77c4fd146102f3578063d97bdfa61461036e575b600080fd5b34801561007357600080fd5b5061007c610409565b6040518080602001828103825283818151815260200191508051906020019060200280838360005b838110156100bf5780820151818401526020810190506100a4565b505050509050019250505060405180910390f35b3480156100df57600080fd5b506102f1600480360360a08110156100f657600080fd5b810190808035906020019064010000000081111561011357600080fd5b82018360208201111561012557600080fd5b8035906020019184600183028401116401000000008311171561014757600080fd5b91908080601f016020809104026020016040519081016040528093929190818152602001838380828437600081840152601f19601f82011690508083019250505050505050919291929080359060200190929190803573ffffffffffffffffffffffffffffffffffffffff169060200190929190803590602001906401000000008111156101d457600080fd5b8201836020820111156101e657600080fd5b8035906020019184600183028401116401000000008311171561020857600080fd5b91908080601f016020809104026020016040519081016040528093929190818152602001838380828437600081840152601f19601f8201169050808301925050505050505091929192908035906020019064010000000081111561026b57600080fd5b82018360208201111561027d57600080fd5b8035906020019184600183028401116401000000008311171561029f57600080fd5b91908080601f016020809104026020016040519081016040528093929190818152602001838380828437600081840152601f19601f820116905080830192505050505050509192919290505050610497565b005b3480156102ff57600080fd5b5061032c6004803603602081101561031657600080fd5b81019080803590602001909291905050506107b9565b604051808273ffffffffffffffffffffffffffffffffffffffff1673ffffffffffffffffffffffffffffffffffffffff16815260200191505060405180910390f35b34801561037a57600080fd5b506103c76004803603604081101561039157600080fd5b81019080803573ffffffffffffffffffffffffffffffffffffffff169060200190929190803590602001909291905050506107f7565b604051808273ffffffffffffffffffffffffffffffffffffffff1673ffffffffffffffffffffffffffffffffffffffff16815260200191505060405180910390f35b6060600180548060200260200160405190810160405280929190818152602001828054801561048d57602002820191906000526020600020905b8160009054906101000a900473ffffffffffffffffffffffffffffffffffffffff1673ffffffffffffffffffffffffffffffffffffffff1681526020019060010190808311610443575b5050505050905090565b600085858585856104a6610844565b80806020018681526020018573ffffffffffffffffffffffffffffffffffffffff1673ffffffffffffffffffffffffffffffffffffffff1681526020018060200180602001848103845289818151815260200191508051906020019080838360005b83811015610523578082015181840152602081019050610508565b50505050905090810190601f1680156105505780820380516001836020036101000a031916815260200191505b50848103835286818151815260200191508051906020019080838360005b8381101561058957808201518184015260208101905061056e565b50505050905090810190601f1680156105b65780820380516001836020036101000a031916815260200191505b50848103825285818151815260200191508051906020019080838360005b838110156105ef5780820151818401526020810190506105d4565b50505050905090810190601f16801561061c5780820380516001836020036101000a031916815260200191505b5098505050505050505050604051809103906000f080158015610643573d6000803e3d6000fd5b5090507f78f27c111a2e7bb421940823aa6c5ec84b80c6dd5a84e940b6c4450d069b19e781604051808273ffffffffffffffffffffffffffffffffffffffff1673ffffffffffffffffffffffffffffffffffffffff16815260200191505060405180910390a16000808573ffffffffffffffffffffffffffffffffffffffff1673ffffffffffffffffffffffffffffffffffffffff1681526020019081526020016000208190806001815401808255809150509060018203906000526020600020016000909192909190916101000a81548173ffffffffffffffffffffffffffffffffffffffff021916908373ffffffffffffffffffffffffffffffffffffffff1602179055505060018190806001815401808255809150509060018203906000526020600020016000909192909190916101000a81548173ffffffffffffffffffffffffffffffffffffffff021916908373ffffffffffffffffffffffffffffffffffffffff16021790555050505050505050565b6001818154811015156107c857fe5b906000526020600020016000915054906101000a900473ffffffffffffffffffffffffffffffffffffffff1681565b60006020528160005260406000208181548110151561081257fe5b906000526020600020016000915091509054906101000a900473ffffffffffffffffffffffffffffffffffffffff1681565b6040516108b5806108558339019056fe608060405234801561001057600080fd5b506040516108b53803806108b5833981018060405260a081101561003357600080fd5b81019080805164010000000081111561004b57600080fd5b8281019050602081018481111561006157600080fd5b815185600182028301116401000000008211171561007e57600080fd5b5050929190602001805190602001909291908051906020019092919080516401000000008111156100ae57600080fd5b828101905060208101848111156100c457600080fd5b81518560018202830111640100000000821117156100e157600080fd5b505092919060200180516401000000008111156100fd57600080fd5b8281019050602081018481111561011357600080fd5b815185600182028301116401000000008211171561013057600080fd5b5050929190505050846000908051906020019061014e92919061024c565b508360018190555060408051908101604052808473ffffffffffffffffffffffffffffffffffffffff16815260200183815250600260008201518160000160006101000a81548173ffffffffffffffffffffffffffffffffffffffff021916908373ffffffffffffffffffffffffffffffffffffffff16021790555060208201518160010190805190602001906101e69291906102cc565b50905050806004908051906020019061020092919061024c565b5033600560006101000a81548173ffffffffffffffffffffffffffffffffffffffff021916908373ffffffffffffffffffffffffffffffffffffffff1602179055505050505050610371565b828054600181600116156101000203166002900490600052602060002090601f016020900481019282601f1061028d57805160ff19168380011785556102bb565b828001600101855582156102bb579182015b828111156102ba57825182559160200191906001019061029f565b5b5090506102c8919061034c565b5090565b828054600181600116156101000203166002900490600052602060002090601f016020900481019282601f1061030d57805160ff191683800117855561033b565b8280016001018555821561033b579182015b8281111561033a57825182559160200191906001019061031f565b5b509050610348919061034c565b5090565b61036e91905b8082111561036a576000816000905550600101610352565b5090565b90565b610535806103806000396000f3fe60806040526004361061006d576000357c0100000000000000000000000000000000000000000000000000000000900463ffffffff168063323046b1146100725780634a79d50c146101025780637c0809fc14610192578063af640d0f146101e9578063ff69909e14610214575b600080fd5b34801561007e57600080fd5b506100876102d7565b6040518080602001828103825283818151815260200191508051906020019080838360005b838110156100c75780820151818401526020810190506100ac565b50505050905090810190601f1680156100f45780820380516001836020036101000a031916815260200191505b509250505060405180910390f35b34801561010e57600080fd5b50610117610375565b6040518080602001828103825283818151815260200191508051906020019080838360005b8381101561015757808201518184015260208101905061013c565b50505050905090810190601f1680156101845780820380516001836020036101000a031916815260200191505b509250505060405180910390f35b34801561019e57600080fd5b506101a7610413565b604051808273ffffffffffffffffffffffffffffffffffffffff1673ffffffffffffffffffffffffffffffffffffffff16815260200191505060405180910390f35b3480156101f557600080fd5b506101fe610439565b6040518082815260200191505060405180910390f35b34801561022057600080fd5b5061022961043f565b604051808373ffffffffffffffffffffffffffffffffffffffff1673ffffffffffffffffffffffffffffffffffffffff16815260200180602001828103825283818151815260200191508051906020019080838360005b8381101561029b578082015181840152602081019050610280565b50505050905090810190601f1680156102c85780820380516001836020036101000a031916815260200191505b50935050505060405180910390f35b60048054600181600116156101000203166002900480601f01602080910402602001604051908101604052809291908181526020018280546001816001161561010002031660029004801561036d5780601f106103425761010080835404028352916020019161036d565b820191906000526020600020905b81548152906001019060200180831161035057829003601f168201915b505050505081565b60008054600181600116156101000203166002900480601f01602080910402602001604051908101604052809291908181526020018280546001816001161561010002031660029004801561040b5780601f106103e05761010080835404028352916020019161040b565b820191906000526020600020905b8154815290600101906020018083116103ee57829003601f168201915b505050505081565b600560009054906101000a900473ffffffffffffffffffffffffffffffffffffffff1681565b60015481565b60028060000160009054906101000a900473ffffffffffffffffffffffffffffffffffffffff1690806001018054600181600116156101000203166002900480601f0160208091040260200160405190810160405280929190818152602001828054600181600116156101000203166002900480156104ff5780601f106104d4576101008083540402835291602001916104ff565b820191906000526020600020905b8154815290600101906020018083116104e257829003601f168201915b505050505090508256fea165627a7a723058202f622859a6ba260673c8ccc79de8588c8e95ae503a9439dec9565f9a5a13e62f0029a165627a7a72305820d9f72d6a1fdeae9387632e2171ed9d4783861e403624a8041feeea9685e8afd70029",
  "source": "pragma solidity ^0.5.0;\n\ncontract Certificate {\n    struct User {\n        address id;\n        string fullname;\n    }\n    \n    string public title;\n    uint public id;\n    User public recepient;\n    string public date;\n    address public givenBy;\n    \n    constructor(string memory _title, uint _id, address userId, string memory username, string memory _date) public {\n        title = _title;\n        id = _id;\n        recepient = User(userId, username);\n        date = _date;\n        givenBy = msg.sender;\n    }\n}\n\ncontract CertificateFactory {\n    event CertificateCreated(Certificate certificateAddress);\n    \n    mapping(address => Certificate[]) public certificateList;\n    Certificate[] public certificateArray;\n    \n    function createCertificate(string memory title, uint id, address userId, string memory username, string memory date) public {\n        Certificate newCertificate = new Certificate(title, id, userId, username, date);\n        emit CertificateCreated(newCertificate);\n        certificateList[userId].push(newCertificate);\n        certificateArray.push(newCertificate);\n    }\n    \n    function getCertificates() public view returns (Certificate[] memory) {\n        return certificateArray;\n    }\n}",
  "sourcePath": "/Users/orenchuk/Developments/blockchain/project/blockchain-certificate/contracts/Certificate.sol",
  "compiler": {
    "name": "solc",
    "version": "0.5.0+commit.1d4f565a.Emscripten.clang"
  },
  "schemaVersion": "3.0.0",
  "updatedAt": "2018-12-26T23:12:22.470Z",
  "devdoc": {
    "methods": {}
  },
  "userdoc": {
    "methods": {}
  }
}